{
  "contractName": "ContentRights",
  "abi": [
    {
      "inputs": [],
      "name": "videoCount",
      "outputs": [
        {
          "internalType": "uint256",
          "name": "",
          "type": "uint256"
        }
      ],
      "stateMutability": "view",
      "type": "function"
    },
    {
      "inputs": [
        {
          "internalType": "uint256",
          "name": "",
          "type": "uint256"
        }
      ],
      "name": "videos",
      "outputs": [
        {
          "internalType": "address",
          "name": "owner",
          "type": "address"
        },
        {
          "internalType": "string",
          "name": "title",
          "type": "string"
        },
        {
          "internalType": "string",
          "name": "description",
          "type": "string"
        },
        {
          "internalType": "string",
          "name": "url",
          "type": "string"
        },
        {
          "internalType": "uint256",
          "name": "reward",
          "type": "uint256"
        }
      ],
      "stateMutability": "view",
      "type": "function"
    },
    {
      "inputs": [
        {
          "internalType": "string",
          "name": "title",
          "type": "string"
        },
        {
          "internalType": "string",
          "name": "description",
          "type": "string"
        },
        {
          "internalType": "string",
          "name": "url",
          "type": "string"
        },
        {
          "internalType": "uint256",
          "name": "reward",
          "type": "uint256"
        }
      ],
      "name": "uploadVideo",
      "outputs": [],
      "stateMutability": "nonpayable",
      "type": "function"
    },
    {
      "inputs": [
        {
          "internalType": "uint256",
          "name": "videoId",
          "type": "uint256"
        }
      ],
      "name": "rewardUploader",
      "outputs": [],
      "stateMutability": "payable",
      "type": "function"
    }
  ],
  "bytecode": "0x608060405234801561000f575f80fd5b50610e198061001d5f395ff3fe60806040526004361061003e575f3560e01c806346cf5f8114610042578063c61b5f4c1461005e578063cc7ce8f514610088578063e6821bf5146100b0575b5f80fd5b61005c600480360381019061005791906106d8565b6100f0565b005b348015610069575f80fd5b506100726103ad565b60405161007f9190610712565b60405180910390f35b348015610093575f80fd5b506100ae60048036038101906100a99190610867565b6103b3565b005b3480156100bb575f80fd5b506100d660048036038101906100d191906106d8565b6104b2565b6040516100e79594939291906109d8565b60405180910390f35b5f805f8381526020019081526020015f206040518060a00160405290815f82015f9054906101000a900473ffffffffffffffffffffffffffffffffffffffff1673ffffffffffffffffffffffffffffffffffffffff1673ffffffffffffffffffffffffffffffffffffffff16815260200160018201805461017090610a6b565b80601f016020809104026020016040519081016040528092919081815260200182805461019c90610a6b565b80156101e75780601f106101be576101008083540402835291602001916101e7565b820191905f5260205f20905b8154815290600101906020018083116101ca57829003601f168201915b5050505050815260200160028201805461020090610a6b565b80601f016020809104026020016040519081016040528092919081815260200182805461022c90610a6b565b80156102775780601f1061024e57610100808354040283529160200191610277565b820191905f5260205f20905b81548152906001019060200180831161025a57829003601f168201915b5050505050815260200160038201805461029090610a6b565b80601f01602080910402602001604051908101604052809291908181526020018280546102bc90610a6b565b80156103075780601f106102de57610100808354040283529160200191610307565b820191905f5260205f20905b8154815290600101906020018083116102ea57829003601f168201915b50505050508152602001600482015481525050905034816080015114610362576040517f08c379a000000000000000000000000000000000000000000000000000000000815260040161035990610ae5565b60405180910390fd5b805f015173ffffffffffffffffffffffffffffffffffffffff166108fc3490811502906040515f60405180830381858888f193505050501580156103a8573d5f803e3d5ffd5b505050565b60015481565b60015f8154809291906103c590610b30565b91905055506040518060a001604052803373ffffffffffffffffffffffffffffffffffffffff168152602001858152602001848152602001838152602001828152505f8060015481526020019081526020015f205f820151815f015f6101000a81548173ffffffffffffffffffffffffffffffffffffffff021916908373ffffffffffffffffffffffffffffffffffffffff16021790555060208201518160010190816104729190610d14565b5060408201518160020190816104889190610d14565b50606082015181600301908161049e9190610d14565b506080820151816004015590505050505050565b5f602052805f5260405f205f91509050805f015f9054906101000a900473ffffffffffffffffffffffffffffffffffffffff16908060010180546104f590610a6b565b80601f016020809104026020016040519081016040528092919081815260200182805461052190610a6b565b801561056c5780601f106105435761010080835404028352916020019161056c565b820191905f5260205f20905b81548152906001019060200180831161054f57829003601f168201915b50505050509080600201805461058190610a6b565b80601f01602080910402602001604051908101604052809291908181526020018280546105ad90610a6b565b80156105f85780601f106105cf576101008083540402835291602001916105f8565b820191905f5260205f20905b8154815290600101906020018083116105db57829003601f168201915b50505050509080600301805461060d90610a6b565b80601f016020809104026020016040519081016040528092919081815260200182805461063990610a6b565b80156106845780601f1061065b57610100808354040283529160200191610684565b820191905f5260205f20905b81548152906001019060200180831161066757829003601f168201915b5050505050908060040154905085565b5f604051905090565b5f80fd5b5f80fd5b5f819050919050565b6106b7816106a5565b81146106c1575f80fd5b50565b5f813590506106d2816106ae565b92915050565b5f602082840312156106ed576106ec61069d565b5b5f6106fa848285016106c4565b91505092915050565b61070c816106a5565b82525050565b5f6020820190506107255f830184610703565b92915050565b5f80fd5b5f80fd5b5f601f19601f8301169050919050565b7f4e487b71000000000000000000000000000000000000000000000000000000005f52604160045260245ffd5b61077982610733565b810181811067ffffffffffffffff8211171561079857610797610743565b5b80604052505050565b5f6107aa610694565b90506107b68282610770565b919050565b5f67ffffffffffffffff8211156107d5576107d4610743565b5b6107de82610733565b9050602081019050919050565b828183375f83830152505050565b5f61080b610806846107bb565b6107a1565b9050828152602081018484840111156108275761082661072f565b5b6108328482856107eb565b509392505050565b5f82601f83011261084e5761084d61072b565b5b813561085e8482602086016107f9565b91505092915050565b5f805f806080858703121561087f5761087e61069d565b5b5f85013567ffffffffffffffff81111561089c5761089b6106a1565b5b6108a88782880161083a565b945050602085013567ffffffffffffffff8111156108c9576108c86106a1565b5b6108d58782880161083a565b935050604085013567ffffffffffffffff8111156108f6576108f56106a1565b5b6109028782880161083a565b9250506060610913878288016106c4565b91505092959194509250565b5f73ffffffffffffffffffffffffffffffffffffffff82169050919050565b5f6109488261091f565b9050919050565b6109588161093e565b82525050565b5f81519050919050565b5f82825260208201905092915050565b5f5b8381101561099557808201518184015260208101905061097a565b5f8484015250505050565b5f6109aa8261095e565b6109b48185610968565b93506109c4818560208601610978565b6109cd81610733565b840191505092915050565b5f60a0820190506109eb5f83018861094f565b81810360208301526109fd81876109a0565b90508181036040830152610a1181866109a0565b90508181036060830152610a2581856109a0565b9050610a346080830184610703565b9695505050505050565b7f4e487b71000000000000000000000000000000000000000000000000000000005f52602260045260245ffd5b5f6002820490506001821680610a8257607f821691505b602082108103610a9557610a94610a3e565b5b50919050565b7f496e636f72726563742072657761726420616d6f756e740000000000000000005f82015250565b5f610acf601783610968565b9150610ada82610a9b565b602082019050919050565b5f6020820190508181035f830152610afc81610ac3565b9050919050565b7f4e487b71000000000000000000000000000000000000000000000000000000005f52601160045260245ffd5b5f610b3a826106a5565b91507fffffffffffffffffffffffffffffffffffffffffffffffffffffffffffffffff8203610b6c57610b6b610b03565b5b600182019050919050565b5f819050815f5260205f209050919050565b5f6020601f8301049050919050565b5f82821b905092915050565b5f60088302610bd37fffffffffffffffffffffffffffffffffffffffffffffffffffffffffffffffff82610b98565b610bdd8683610b98565b95508019841693508086168417925050509392505050565b5f819050919050565b5f610c18610c13610c0e846106a5565b610bf5565b6106a5565b9050919050565b5f819050919050565b610c3183610bfe565b610c45610c3d82610c1f565b848454610ba4565b825550505050565b5f90565b610c59610c4d565b610c64818484610c28565b505050565b5b81811015610c8757610c7c5f82610c51565b600181019050610c6a565b5050565b601f821115610ccc57610c9d81610b77565b610ca684610b89565b81016020851015610cb5578190505b610cc9610cc185610b89565b830182610c69565b50505b505050565b5f82821c905092915050565b5f610cec5f1984600802610cd1565b1980831691505092915050565b5f610d048383610cdd565b9150826002028217905092915050565b610d1d8261095e565b67ffffffffffffffff811115610d3657610d35610743565b5b610d408254610a6b565b610d4b828285610c8b565b5f60209050601f831160018114610d7c575f8415610d6a578287015190505b610d748582610cf9565b865550610ddb565b601f198416610d8a86610b77565b5f5b82811015610db157848901518255600182019150602085019450602081019050610d8c565b86831015610dce5784890151610dca601f891682610cdd565b8355505b6001600288020188555050505b50505050505056fea2646970667358221220214f817c51fc9a383192463fd4aaaaa550fd5c1700f5727687846df642863fd364736f6c63430008150033",
  "immutableReferences": {},
  "source": "pragma solidity ^0.8.21;\r\n\r\ncontract ContentRights {\r\n    struct Video {\r\n        address owner;\r\n        string title;\r\n        string description;\r\n        string url;\r\n        uint256 reward;\r\n    }\r\n\r\n    mapping(uint256 => Video) public videos;\r\n    uint256 public videoCount;\r\n\r\n    function uploadVideo(string memory title, string memory description, string memory url, uint256 reward) public {\r\n        videoCount++;\r\n        videos[videoCount] = Video(msg.sender, title, description, url, reward);\r\n    }\r\n\r\n    function rewardUploader(uint256 videoId) public payable {\r\n        Video memory video = videos[videoId];\r\n        require(video.reward == msg.value, \"Incorrect reward amount\");\r\n\r\n        payable(video.owner).transfer(msg.value);\r\n    }\r\n}",
  "sourcePath": "C:\\Users\\Hp\\Documents\\lalagreen\\theta-video-platform\\smart-contracts\\contracts\\ContentRights.sol",
  "compiler": {
    "name": "solc",
    "version": "0.8.21+commit.d9974bed.Emscripten.clang"
  },
  "schemaVersion": "3.4.16",
  "updatedAt": "2024-07-22T15:54:27.787Z",
  "devdoc": {
    "kind": "dev",
    "methods": {},
    "version": 1
  },
  "userdoc": {
    "kind": "user",
    "methods": {},
    "version": 1
  }
}